:1000000049C0000065C0000063C0000061C000007E
:100010005FC000005DC000005BC0000059C0000070
:1000200057C0000055C0000053C0000051C0000080
:1000300000C600004DC000004BC0000049C00000D9
:1000400047C0000045C000007CC0000041C0000067
:100050003FC000005AC600003BC0000025C600009B
:1000600037C0000035C0000033C0000031C00000C0
:100070002FC000002DC000002BC0000029C00000D0
:10008000A8C6000025C0000073C6000021C0000003
:100090001FC0000011241FBECFEFD0E1DEBFCDBFD7
:1000A00011E0A0E0B1E0E6EEF3E100E00BBF02C03A
:1000B00007900D92A031B107D9F712E0A0E1B1E0AD
:1000C00001C01D92AD37B107E1F7A4D20C94F1093C
:1000D00097CFEDE2F0E02081286320831092950015
:1000E00010929400109299001092980010929B0028
:1000F00010929A0010929D0010929C002EEF209377
:1001000090002AE120939100880F991F880F991F72
:10011000880F991FA0E0B0E0BC01CD0186D79B01FC
:10012000AC0160E876E988E19BE4EBD620E030E0C2
:1001300040E05FE381D64DD77093970060939600BF
:1001400008951F920F920FB60F920BB60F921124C3
:10015000CF92DF92FF920F931F932F933F934F9372
:100160005F936F937F938F939F93AF93BF93CF933F
:10017000DF93EF93FF93F090ED0090E0ADEEB0E0F1
:10018000EEEEF0E0892F8295807F8C93808185FF51
:1001900050C080E88093EF00EEEEF0E080818F7D2C
:1001A00080832091F2008091F300880F880F880FE0
:1001B000229526952770822B90E09C01220F331FF9
:1001C000E901C25FDE4F20E030E0BC0161507040C9
:1001D0000F2EF4E2CF2EF1E0DF2EF02DC60ED71E4B
:1001E0000AEF10E0AB01D6018C91F901E80FF11D87
:1001F000CF01E881F981E80FF91FD8018C91808344
:100200002F5F3F4F2830310569F7FB01EC5DFE4F52
:1002100080818F5F80838081853021F4FB01EC5DDC
:10022000FE4F1082FA01E85CFE4F80818F5F808371
:100230000FC0808186FF08C01092EF00EEEEF0E064
:1002400080818F7B808304C09F5F9F3009F09ACFAD
:10025000F092ED00EAEDF0E080818083FF91EF9174
:10026000DF91CF91BF91AF919F918F917F916F91CE
:100270005F914F913F912F911F910F91FF90DF90D0
:10028000CF900F900BBE0F900FBE0F901F90189540
:10029000CF92DF92EF92FF920F931F93CF93DF9352
:1002A0008C01A62FB0E0AD0141505040C8E3D1E031
:1002B000FE01E40FF51F7A0180818823E1F3262FE8
:1002C00030E0C901880F991FEC01C25FDE4F40E0AA
:1002D00050E0215030400F2EFEE2CF2EF1E0DF2E15
:1002E000F02DD601A20FB31F8C91FA01E80FF11D7A
:1002F000CF01E881F981E80FF91F8081F801E40F4F
:10030000F51F80834F5F5F4F4830510569F7F90152
:10031000E25DFE4F80818F5F80838081853021F494
:10032000F901E25DFE4F1082F701E85CFE4F80812B
:100330008150808380E0DF91CF911F910F91FF90DA
:10034000EF90DF90CF900895AC01E9EDF0E080816F
:1003500084FDFDCF808183FDFACF9091ED0020E0F8
:10036000ADEEB0E0EFEEF0E0822F8295807F8C93CF
:100370008081829586958695837021F02F5F2F303E
:1003800099F728C02F3031F1862F8295880F807E13
:100390008093F200862F8695869586958093F3004C
:1003A00088E08093EF0020E030E0AAEFB0E0FA01AF
:1003B000E20FF31F80818C932F5F3F4F2830310570
:1003C000B1F7EFEEF0E08081806480839093ED00E0
:1003D00080E008958FEF08952F923F924F925F92A1
:1003E0006F927F928F929F92AF92BF92CF92DF9245
:1003F000EF92FF920F931F93DF93CF930F92CDB79E
:10040000DEB7898381E08093D80090E00F2EFDEE67
:100410006F2E7724F02D0F2EFEEECF2EDD24F02D43
:100420000F2EFFEEAF2EBB24F02D0F2EF3EF8F2EED
:100430009924F02D62EF70E001EF10E00F2EF0EF45
:10044000EF2EFF24F02D27EF30E046EF50E00F2E87
:10045000F5EF4F2E5524F02D0F2EF4EF2F2E3324D1
:10046000F02DEAEFF0E0892F8295807FD3018C9305
:10047000D6011C92D5011C92D4011C92DB011C9266
:10048000D8011C92D7011C92D9011C92DA011C924E
:10049000D2011C92D1011C9280E010828F5F8830C3
:1004A000E1F79F5F9F30F9F682E08093D80081E00A
:1004B0008093E20088E08093E3008EE58093E4007F
:1004C0001092E50080EB8093DB008FE78093DF00E4
:1004D0008FEF8093DE007894B981BB2309F486C046
:1004E0000F2EF0E18F2EF1E09F2EF02DAA24BB24D9
:1004F0006624772463940F2EFDEEEF2EFF24F02D5B
:100500000F2EFFEECF2EDD24F02D0F2EFEE24F2E0C
:10051000F1E05F2EF02D0F2EF4E22F2EF1E03F2EB2
:10052000F02D8501F7012081A9EDB0E08C9184FDCB
:10053000FBCF8C9183FDF8CF90E0892F8295807F4F
:10054000F7018083D6018C9182958695869583707C
:1005500019F5EFE0EC93C301907096958795969509
:10056000879596958795A3EFB0E08C93862D82951D
:10057000880F807EE2EFF0E08083E0EEA6EFB0E04F
:10058000EC93EFEFA7EFB0E0EC93D6018C9180688D
:100590008C93F701208305C09F5F9F3071F6D701D0
:1005A0002C9385E090E061E070E0F5D5F401808364
:1005B0009183E8E3F1E0E00FF11F10828081F20106
:1005C000E00FF11F80838081F101E00FF11F808334
:1005D0000894A11CB11C82E090E0880E991E08943A
:1005E000611C711C9981A91608F49BCF0F90CF91C3
:1005F000DF911F910F91FF90EF90DF90CF90BF9010
:10060000AF909F908F907F906F905F904F903F90B2
:100610002F900895F6D228EE33E04AEF50E0CA0159
:100620000197F1F721503040D1F700D2FECFE6D24A
:10063000813049F4D5D261597F458140904018F00E
:1006400083E5CDD0FFCF08952F923F924F925F92D6
:100650006F927F928F929F92AF92BF92CF92DF92D2
:10066000EF92FF920F931F93DF93CF93CDB7DEB737
:1006700066970FB6F894DEBF0FBECDBF49875A8785
:100680006B877C878D879E874D845E8489859A855C
:10069000988B8F875E8B2B843C847D8B0AEF10E0D8
:1006A0007E010894E11CF11C0F2EF4EF6F2EF1E097
:1006B0007F2EF02D89E489839E899A832F852B8351
:1006C0008D898C832D821E824F8207C09301C801C1
:1006D0000197F1F721503040D1F7C70163EC34DEC8
:1006E0008823A1F790E5998307C09301C80101977A
:1006F000F1F721503040D1F7C70163EC25DE8823A4
:10070000A1F7C70161E0C4DD2C812C8B8D818B8B1F
:100710009E819A8B2F81298BDA80CC248B8190E06B
:10072000B601682B792B8F859889681B790B8827F0
:1007300077FD8095982F7BD49F7720E030E040EACA
:1007400050E401D518160CF4B5CFBC88AA242B8927
:10075000822F90E0B501682B792B621973098827E5
:1007600077FD8095982F63D49F7720E030E040EAB2
:1007700050E4E9D418160CF49DCF9A88882429896E
:10078000822F90E0B401682B792B641975098827B2
:1007900077FD8095982F4BD49F7720E030E040EA9A
:1007A00050E4D1D418160CF485CF80E066960FB6CD
:1007B000F894DEBF0FBECDBFCF91DF911F910F9197
:1007C000FF90EF90DF90CF90BF90AF909F908F9071
:1007D0007F906F905F904F903F902F900895AF92D1
:1007E000BF92CF92DF92EF92FF920F931F93DF930E
:1007F000CF93CDB7DEB728970FB6F894DEBF0FBE04
:10080000CDBFB82E0AEF10E07E010894E11CF11C68
:100810000F2EF4EFCF2EF1E0DF2EF02D0F2EF0E5AE
:10082000AF2EF02DB98207C09601C8010197F1F7EC
:1008300021503040D1F7C70163EC86DD8823A1F752
:10084000A98207C09601C8010197F1F721503040F5
:10085000D1F7C70163EC78DD8823A1F7C70161E018
:1008600017DD89818D34F1F28235E1F280E028963E
:100870000FB6F894DEBF0FBECDBFCF91DF911F91B1
:100880000F91FF90EF90DF90CF90BF90AF900895C1
:100890002F923F924F925F927F928F929F92AF9250
:1008A000BF92CF92DF92EF92FF920F931F93DF934D
:1008B000CF93CDB7DEB72E970FB6F894DEBF0FBE3D
:1008C000CDBF49875A876B877C878D879E87702E1F
:1008D0002701C984DA84EB84FC8486E589832A8332
:1008E0005E010894A11CB11C0F2EF4EF8F2EF1E0D5
:1008F0009F2EF02D0AEF10E007C09401C801019768
:10090000F1F721503040D1F7C50163EC1DDD88239C
:10091000A1F787E489838D2D992787FD9A958A838E
:10092000CB828F2D992787FD9A958C83ED821E822D
:100930007F827E010894E11CF11C0F2EF4EFCF2E74
:10094000F1E0DF2EF02D0AEF10E007C09601C8019C
:100950000197F1F721503040D1F7C70163ECF4DC87
:100960008823A1F73DD14C01AA2497FCA094BA2C6E
:100970000F2EF0E57F2EF02D0F2EF4EF2F2EF1E04D
:100980003F2EF02D0AEF10E07E010894E11CF11CCF
:10099000C101D22CC92E798207C08D2D9C2DF80162
:1009A0003197F1F70197D9F7C70163ECCDDC8823C4
:1009B000A1F7C70161E06CDC4981493411F480E0A2
:1009C0001DC0433511F482E019C04534B1F09101E6
:1009D000C8010197F1F721503040D1F74235D9F2E3
:1009E00041145104C1F2C501B401F20109958130ED
:1009F00021F0823081F683E001C081E02E960FB6AF
:100A0000F894DEBF0FBECDBFCF91DF911F910F9144
:100A1000FF90EF90DF90CF90BF90AF909F908F901E
:100A20007F905F904F903F902F9008952F923F922C
:100A30004F925F926F927F928F929F92AF92BF92EE
:100A4000CF92DF92EF92FF920F931F93DF93CF939A
:100A5000CDB7DEB727970FB6F894DEBF0FBECDBF78
:100A60001A8219821C821B821E821D8249815A8130
:100A70006B817C818D819E81E7DDACE0B1E0FD0181
:100A800081918F8310811296AD90BC90139741E0B5
:100A90007090060160900701509008014090090194
:100AA00030900A0120900B010F2EF0E18F2EF7E21B
:100AB0009F2EF02D0F2EFAEFCF2EDD24F02D423099
:100AC00019F04130E1F708C09401C6010197F1F730
:100AD00021503040D1F7F3CF472D562D652D742D81
:100AE000832D922D2F81012F7501D2DE42E0E7CFB9
:100AF000E82FF0E0EE0FFF1FEB5BFE4FA081B1810E
:100B0000ED91FC9111973297808112962C9190E093
:100B100002C0959587952A95E2F781700895CF9246
:100B2000DF92FF920F931F93CF93DF938091440145
:100B30008F5F80934401833010F0109244018091C4
:100B40004301882309F180914401C82FD0E0FF249C
:100B50000F2EF5E4CF2EF1E0DF2EF02D8F2D90E05B
:100B6000880F991FF601E80FF91F008111818F2D61
:100B7000BFDF0C0F1D1F0D5F1F4FF8018083F39423
:100B800080914301F81650F3DF91CF911F910F919F
:100B9000FF90DF90CF9008951092800029E020937D
:100BA0008100A0E0B0E0BC01CD013FD29B01AC01CF
:100BB00060E876E988E19BE4A4D120E030E040E001
:100BC0005FE33BD106D2709389006093880082E096
:100BD00080936F00EFE5F0E0808180688083089566
:100BE00020916D0130916E0140916F015091700123
:100BF000622F732F842F952F0895089580914201BD
:100C0000089582E390E065DA88EE93E0C5DF84E042
:100C1000E3DBF3DF813061F010926D0110926E0121
:100C200010926F011092700181E08093420108954B
:100C3000FFCF1F920F920FB60F920BB60F92112497
:100C40002F933F934F935F936F937F938F939F93D4
:100C5000AF93BF93EF93FF9362DFE9DC80916D0167
:100C600090916E01A0916F01B09170010196A11D4C
:100C7000B11D80936D0190936E01A0936F01B093AD
:100C80007001FF91EF91BF91AF919F918F917F91F3
:100C90006F915F914F913F912F910F900BBE0F90ED
:100CA0000FBE0F901F9018951F920F920FB60F92C4
:100CB0000BB60F9211248F93EF93FF9380917701DE
:100CC0008823C9F0809177018150809377018091CA
:100CD0007801E9E7F1E0E80FF11D80818093C6001B
:100CE000809178018F5F80937801809178018034C2
:100CF00011F410927801FF91EF918F910F900BBE3C
:100D00000F900FBE0F901F9018951F920F920FB665
:100D10000F920BB60F9211248F939F93EF93FF9333
:100D20008091C0008C71C9F4809176019091C600C9
:100D3000E9EBF1E0E80FF11D9083809176018F5F80
:100D40008093760180917601803411F410927601BF
:100D5000809175018F5F80937501FF91EF919F9155
:100D60008F910F900BBE0F900FBE0F901F90189594
:100D70001F920F920FB60F920BB60F9211248F9302
:100D8000EF93FF93809172018823C9F080917201E3
:100D900081508093720180917401E9EFF1E0E80FD6
:100DA000F11D80818093CE00809174018F5F8093CC
:100DB000740180917401803411F410927401FF91D8
:100DC000EF918F910F900BBE0F900FBE0F901F9061
:100DD00018951F920F920FB60F920BB60F92112417
:100DE0008F939F93EF93FF938091C8008C71C9F408
:100DF000809173019091CE00E9E3F2E0E80FF11DDC
:100E00009083809173018F5F809373018091730150
:100E1000803411F410927301809171018F5F80937F
:100E20007101FF91EF919F918F910F900BBE0F90E9
:100E30000FBE0F901F9018955058BB27AA270ED0B1
:100E400048C139D130F03ED120F031F49F3F11F448
:100E50001EF42EC10EF4E095E7FB24C1E92F4AD120
:100E600080F3BA17620773078407950718F071F4C7
:100E70009EF562C10EF4E0950B2EBA2FA02D0B014A
:100E8000B90190010C01CA01A0011124FF27591BCF
:100E900099F0593F50F4503E68F11A16F040A22FD5
:100EA000232F342F4427585FF3CF46953795279546
:100EB000A795F0405395C9F77EF41F16BA0B620B45
:100EC000730B840BBAF09150A1F0FF0FBB1F661F8C
:100ED000771F881FC2F70EC0BA0F621F731F841FCF
:100EE00048F4879577956795B795F7959E3F08F0F5
:100EF000B3CF9395880F08F09927EE0F97958795B4
:100F000008950CD0E6C0DED040F0D5D030F021F40A
:100F10005F3F19F0C7C0511110C1CAC0EBD098F3A0
:100F20009923C9F35523B1F3951B550BBB27AA276A
:100F300062177307840738F09F5F5F4F220F331FDC
:100F4000441FAA1FA9F333D00E2E3AF0E0E830D0A8
:100F500091505040E695001CCAF729D0FE2F27D0AB
:100F6000660F771F881FBB1F261737074807AB0779
:100F7000B0E809F0BB0B802DBF01FF2793585F4FEE
:100F80002AF09E3F510568F08DC0D7C05F3FECF35B
:100F9000983EDCF3869577956795B795F7959F5FB3
:100FA000C9F7880F911D9695879597F90895E1E007
:100FB000660F771F881FBB1F621773078407BA0766
:100FC00020F0621B730B840BBA0BEE1F88F7E095C1
:100FD000089598D088F09F5790F0B92F9927B7516E
:100FE000A0F0D1F0660F771F881F991F1AF0BA95ED
:100FF000C9F712C0B13081F09FD0B1E008959CC014
:10100000672F782F8827B85F39F0B93FCCF38695E2
:1010100077956795B395D9F73EF49095809570953F
:1010200061957F4F8F4F9F4F0895E89409C097FBBC
:101030003EF490958095709561957F4F8F4F9F4FAF
:101040009923A9F0F92F96E9BB279395F6958795F3
:1010500077956795B795F111F8CFFAF4BB0F11F4B6
:1010600060FF1BC06F5F7F4F8F4F9F4F16C088235D
:1010700011F096E911C0772321F09EE8872F762F93
:1010800005C0662371F096E8862F70E060E02AF0D4
:101090009A95660F771F881FDAF7880F96958795C0
:1010A00097F9089597F99F6780E870E060E00895E8
:1010B0009FEF80EC089500240A9416161706180670
:1010C0000906089500240A9412161306140605064C
:1010D0000895092E0394000C11F4882352F0BB0FDD
:1010E00040F4BF2B11F460FF04C06F5F7F4F8F4F40
:1010F0009F4F089557FD9058440F551F59F05F3F7B
:1011000071F04795880F97FB991F61F09F3F79F029
:1011100087950895121613061406551FF2CF4695AB
:10112000F1DF08C0161617061806991FF1CF86952D
:101130007105610508940895E894BB276627772711
:10114000CB0197F9089503D008F48FEF0895990F14
:101150000008550FAA0BE0E8FEEF16161706E80781
:10116000F907C0F012161306E407F50798F0621BA2
:10117000730B840B950B39F40A2661F0232B242B77
:10118000252B21F408950A2609F4A140A6958FEF96
:10119000811D811D08950F931F93CF93DF93689F47
:1011A0008001699F100D789F100D1124C8010DD08A
:1011B000EC01009721F060E070E0A8010BD1CE01B6
:1011C000DF91CF911F910F910895CF93DF93BC01D1
:1011D0008230910510F462E070E0A0917B02B09142
:1011E0007C02ED01E0E0F0E040E050E021C08881C9
:1011F00099818617970769F48A819B81309719F046
:101200009383828304C090937C0280937B02FE01CF
:1012100034C06817790738F44115510519F084175F
:10122000950708F4AC01FE018A819B819C01E901CC
:101230002097E9F641155105A9F1CA01861B970BC4
:10124000049708F4BA01E0E0F0E02AC08D919C9187
:10125000119784179507F9F46417750781F41296AE
:101260008D919C911397309719F09383828304C0DA
:1012700090937C0280937B02FD0132964FC0CA019D
:10128000861B970BFD01E80FF91F6193719302977D
:101290008D939C9343C0FD01828193819C01D90170
:1012A0001097A1F68091790290917A02892B41F4EE
:1012B000809102019091030190937A0280937902C8
:1012C00040910401509105014115510541F44DB77C
:1012D0005EB78091000190910101481B590B20914C
:1012E000790230917A0224173507B0F4CA01821BC3
:1012F000930B8617970780F0AB014E5F5F4F841703
:10130000950750F0420F531F50937A024093790291
:10131000F9016193719302C0E0E0F0E0CF01DF9149
:10132000CF910895CF93DF93009709F450C0EC015B
:1013300022971B821A82A0917B02B0917C021097A7
:1013400009F140E050E0AC17BD0708F1BB83AA8368
:10135000FE0121913191E20FF31FAE17BF0779F41F
:101360008D919C911197280F391F2E5F3F4F398324
:10137000288312968D919C9113979B838A834115A4
:10138000510571F4D0937C02C0937B0220C0129669
:101390008D919C911397AD01009711F0DC01D3CF93
:1013A000FA01D383C28321913191E20FF31FCE174B
:1013B000DF0769F488819981280F391F2E5F3F4F1D
:1013C000FA01318320838A819B8193838283DF9119
:1013D000CF910895DC0101C06D9341505040E0F77A
:0613E0000895F894FFCF10
:1013E60020007D020000CC019E07000028010000BD
:00000001FF
